{
  "contractName": "Payroll",
  "abi": [
    {
      "constant": true,
      "inputs": [
        {
          "name": "newAddress",
          "type": "address"
        }
      ],
      "name": "empolyeeExist",
      "outputs": [
        {
          "name": "addressExist",
          "type": "bool"
        }
      ],
      "payable": false,
      "stateMutability": "view",
      "type": "function"
    },
    {
      "constant": false,
      "inputs": [
        {
          "name": "accountAddress",
          "type": "address"
        },
        {
          "name": "allowedTokens",
          "type": "address[]"
        },
        {
          "name": "initialYearlyEURSalary",
          "type": "uint256"
        }
      ],
      "name": "addEmployee",
      "outputs": [],
      "payable": false,
      "stateMutability": "nonpayable",
      "type": "function"
    },
    {
      "anonymous": false,
      "inputs": [
        {
          "indexed": false,
          "name": "accountAddress",
          "type": "address"
        },
        {
          "indexed": false,
          "name": "allowedTokens",
          "type": "address[]"
        },
        {
          "indexed": false,
          "name": "initialYearlyEURSalary",
          "type": "uint256"
        }
      ],
      "name": "NewEmployee",
      "type": "event"
    }
  ],
  "bytecode": "0x6060604052336000806101000a81548173ffffffffffffffffffffffffffffffffffffffff021916908373ffffffffffffffffffffffffffffffffffffffff16021790555061066c806100536000396000f30060606040526004361061004c576000357c0100000000000000000000000000000000000000000000000000000000900463ffffffff1680631f2023c81461005157806368c84260146100a2575b600080fd5b341561005c57600080fd5b610088600480803573ffffffffffffffffffffffffffffffffffffffff16906020019091905050610124565b604051808215151515815260200191505060405180910390f35b34156100ad57600080fd5b610122600480803573ffffffffffffffffffffffffffffffffffffffff16906020019091908035906020019082018035906020019080806020026020016040519081016040528093929190818152602001838360200280828437820191505050505050919080359060200190919050506101ef565b005b600080600180549050141561013c57600090506101ea565b8173ffffffffffffffffffffffffffffffffffffffff166001600260008573ffffffffffffffffffffffffffffffffffffffff1673ffffffffffffffffffffffffffffffffffffffff168152602001908152602001600020600001548154811015156101a457fe5b906000526020600020900160009054906101000a900473ffffffffffffffffffffffffffffffffffffffff1673ffffffffffffffffffffffffffffffffffffffff161490505b919050565b6101f76104c9565b6000809054906101000a900473ffffffffffffffffffffffffffffffffffffffff1673ffffffffffffffffffffffffffffffffffffffff163373ffffffffffffffffffffffffffffffffffffffff1614156104c357600073ffffffffffffffffffffffffffffffffffffffff168473ffffffffffffffffffffffffffffffffffffffff161415801561028a575060008351115b80156102965750600082115b15156102a157600080fd5b6102aa84610124565b15156104c25760806040519081016040528060018054905081526020018573ffffffffffffffffffffffffffffffffffffffff16815260200184815260200183815250905080600260008673ffffffffffffffffffffffffffffffffffffffff1673ffffffffffffffffffffffffffffffffffffffff1681526020019081526020016000206000820151816000015560208201518160010160006101000a81548173ffffffffffffffffffffffffffffffffffffffff021916908373ffffffffffffffffffffffffffffffffffffffff160217905550604082015181600201908051906020019061039c92919061050e565b5060608201518160030155905050600180548060010182816103be9190610598565b9160005260206000209001600086909190916101000a81548173ffffffffffffffffffffffffffffffffffffffff021916908373ffffffffffffffffffffffffffffffffffffffff160217905550507f5e0612af4831eca33f65fb7a49b195273a1fd5acb4ac3a4eedec4f5ab528dd86848484604051808473ffffffffffffffffffffffffffffffffffffffff1673ffffffffffffffffffffffffffffffffffffffff16815260200180602001838152602001828103825284818151815260200191508051906020019060200280838360005b838110156104ac578082015181840152602081019050610491565b5050505090500194505050505060405180910390a15b5b50505050565b60806040519081016040528060008152602001600073ffffffffffffffffffffffffffffffffffffffff1681526020016105016105c4565b8152602001600081525090565b828054828255906000526020600020908101928215610587579160200282015b828111156105865782518260006101000a81548173ffffffffffffffffffffffffffffffffffffffff021916908373ffffffffffffffffffffffffffffffffffffffff1602179055509160200191906001019061052e565b5b50905061059491906105d8565b5090565b8154818355818115116105bf578183600052602060002091820191016105be919061061b565b5b505050565b602060405190810160405280600081525090565b61061891905b8082111561061457600081816101000a81549073ffffffffffffffffffffffffffffffffffffffff0219169055506001016105de565b5090565b90565b61063d91905b80821115610639576000816000905550600101610621565b5090565b905600a165627a7a72305820c640eaf56bb68c1b21cc387282acc46c6912a9f56fd8dc67666e68df7f8b45f00029",
  "source": "pragma solidity ^0.4.18;\r\n\r\nimport \"./PayrollInterface.sol\";\r\nimport \"./Owned.sol\";\r\n\r\ncontract Payroll is PayrollInterface, Owned {\r\n\r\n    event NewEmployee(address accountAddress, address[] allowedTokens, uint256 initialYearlyEURSalary);\r\n\r\n    struct Employee {\r\n        uint256 employeedId;\r\n        address accountAddress;\r\n        address[] allowedToken;\r\n        uint256 yearlyEURSalary;\r\n    }\r\n\r\n    address[] private employeeIndex;\r\n    mapping(address => Employee) m_employees;\r\n\r\n    function addEmployee(address accountAddress, address[] allowedTokens, uint256 initialYearlyEURSalary) onlyOwner public {\r\n        require(accountAddress != address(0) && allowedTokens.length > 0 && initialYearlyEURSalary > 0);\r\n\r\n        if (!empolyeeExist(accountAddress)) {\r\n            var newEmployee = Employee(employeeIndex.length, accountAddress, allowedTokens, initialYearlyEURSalary);\r\n\r\n            m_employees[accountAddress] = newEmployee;\r\n            employeeIndex.push(accountAddress);\r\n\r\n            NewEmployee(accountAddress, allowedTokens, initialYearlyEURSalary);\r\n        }\r\n    }\r\n\r\n    function empolyeeExist(address newAddress) public view returns (bool addressExist) {\r\n        if (employeeIndex.length == 0)\r\n            return false;\r\n        \r\n        return (employeeIndex[m_employees[newAddress].employeedId] == newAddress);\r\n    }\r\n\r\n}",
  "sourcePath": "C:\\Ethereum\\Payroll\\contracts\\Payroll.sol",
  "compiler": {
    "name": "solc",
    "version": "0.4.18+commit.9cf6e910.Emscripten.clang"
  },
  "schemaVersion": "1.0.1",
  "updatedAt": "2017-12-02T16:32:02.354Z"
}